:1078000011241FBECFEFDAE0DEBFCDBFFDC04101C6
:1078100042144505560455026403740300001E9586
:1078200087020110030000C18081C106C0FF0A0069
:107830000CA10185037508150026FF00954009017C
:107840008102954009029102C0040309041A033021
:1078500000300030003000300030003000300031A7
:1078600000370030003100200353007000610072C7
:10787000006B00460075006E002000460069006F36
:107880000020007600330000002A035300700061DE
:107890000072006B00460075006E00200045006C11
:1078A0000065006300740072006F006E0069006381
:1078B00000730012010002020000404F1B04000090
:1078C000010002030112010002000000404F1B04EE
:1078D000000001000203010902640003010080327C
:1078E000080B00020202010009040000010202006C
:1078F00000052400100105240101010424020205F1
:10790000240600010705810310004009040100025C
:107910000A0000000705020240000007058302403C
:107920000000090402000103000000092101010018
:1079300001221E00070584034000400020918A01B7
:1079400030918B012C5F3F4F30938B0120938A0144
:10795000C901892F99278695982F803418F08FE7D1
:10796000891B982F990F921710F447980895479AFA
:1079700008955D9A289A81E08093E0001092E200D9
:10798000EE27FF27099408950F931F93CF93DF935A
:10799000982FEB01042F10E088E76030780730F46F
:1079A00011E083E0FB0180935700E895892F68E0A0
:1079B00071E0402FF8D0112311F107B600FCFDCF84
:1079C000402F4695FE01A8E0B1E020E031E009C07B
:1079D0008D919D910C0130935700E89511243296BA
:1079E0002F5F2417A8F385E0FE0180935700E895E8
:1079F00007B600FCFDCF81E180935700E895DF9149
:107A0000CF911F910F91089588E10FB6F89480935C
:107A10006000109260000FBE5D9A289A47983F9AC6
:107A2000209A559A90E8909361001092610081E845
:107A300085BF95BF9FD084E18093880180E18093CA
:107A40008901E0E0F0E0859194918F5F9F4F19F0FC
:107A500081E080938F01EE24FF24BB24B39454EF84
:107A6000C52E51E0D52E13D2082F8EE098E7FC01E9
:107A70002491319602964491201711F02223B9F7F0
:107A8000109291011092900182E068E071E08BD039
:107A9000013479F4609108016058633028F068314E
:107AA00011F064E001C063E0C62FD0E0CF5DD7489D
:107AB0000EC0063571F480910801803311F011E099
:107AC00022C080910A01C82FD0E0C25ED74811E0E1
:107AD00022C0053721F413E0CEE1D8E71CC00535FC
:107AE00039F4E0900801F0900901EE0CFF1C0AC087
:107AF000043631F482E0B7014091090145DF02C04C
:107B0000043721F010E0C5E2D8E705C01091090163
:107B1000E701E10EF11CBBD18097B1F483E068E886
:107B200071E041E050E059D0112329F0412F50E09D
:107B300083E8BE0152D083E469E871E041E050E09F
:107B40004CD0013509F08FCFD0929101C0929001B5
:107B5000B0928F01EE24FF2486CFFC01289884E6A2
:107B600080938D0104C08091F10081936150662360
:107B7000D1F70895109291011092900110928E0108
:107B800010928F0181E08093D70080EA8093D80023
:107B900082E089BD09B400FEFDCF80E98093D80062
:107BA0001092E0000895FB018093E90024E69BE633
:107BB00011C08091E80085FFFCCF289820938D01AB
:107BC0008091F10081938091E80085FD02C090933F
:107BD000E8004150442369F70895982FFB01282FAE
:107BE000207287708093E90064E63AE317C08091C1
:107BF000E80085FFFCCF97FF02C0849101C080811F
:107C00003196211180E05D9860938C018093F100A2
:107C10008091E80085FD02C03093E800415050405B
:107C20008FEF4F3F580719F796FF03C08AE3809301
:107C3000E800089580919301813299F45D9884E67B
:107C400080938C0120E030E003C080818093F100BC
:107C5000F901E050FF4F2F5F3F4F28303105A9F762
:107C600014C0803261F48091E80082FFFCCF80E094
:107C700091E067E072DF8BEF8093E80006C082320C
:107C800021F4809194018093070181E0089520916F
:107C90009501223289F1213081F4809198019091EF
:107CA0009901089711F420939A0180919A018823F1
:107CB00009F04FC0E5ECF8E74EC0223021F484E62D
:107CC000E7EDF8E71CC0233009F041C08091940132
:107CD000882319F4E9E4F8E73EC0823019F4E7E6B6
:107CE000F8E739C0833019F4EDE4F8E734C08130A7
:107CF00071F5E9E8F8E72FC081E0EBE2F8E7909151
:107D00009801382F981708F4392F90918C0120E0B2
:107D10004EEF8091E8008570E1F38091E80082FDEC
:107D200012C02F5F84915D988093F100822F8F7332
:107D300011F44093E800319694E6231750F39093A2
:107D40008C0181E0089590938C0180E0089580E09B
:107D50000895E3EBF8E78491D2CF1092E900809187
:107D6000E80083FF61C082E991E068E0F6DE82EF1F
:107D70008093E8008091920187FF05C08091E80020
:107D800080FFFCCF03C08EEF8093E80080919301C9
:107D9000853051F48091E80080FFFCCF8091940100
:107DA00080688093E30039C08930E1F480919401C8
:107DB00080938E01E7E2F8E791E031E026E39093CB
:107DC000E9003093EB0084918093EC002093ED0068
:107DD0009F5F3196953099F78EE78093EA00109275
:107DE000EA001BC0883049F490918E015D9884E6CA
:107DF00080938C019093F10010C0882339F45D9832
:107E000084E680938C011092F10007C0863011F453
:107E10003EDF01C00FDF882321F08EEF8093E80062
:107E2000089581E28093EB0008958091E100109223
:107E3000E100282F83FF0CC01092E90081E08093BD
:107E4000EB001092EC0082E38093ED0010928E0123
:107E500022FF1CC080918C01882331F081508093D7
:107E60008C01882309F45D9A80918D01882331F07B
:107E7000815080938D01882309F4289A80918F0185
:107E8000882321F4109291011092900108951F937C
:107E9000CF93DF9312E0C8ECD0E05FDFC6DF109332
:107EA000E9008091E80085FF13C0289884E680935C
:107EB0008D019091F1008091E80085FD03C08BE673
:107EC0008093E800892F90E0DF91CF911F91089572
:107ED00080919001909191010197909391018093ED
:107EE00090018091900190919101892B09F441DDDD
:0A7EF000CE010197F1F722DDD0CF9B
:087EFA0000E10000000000009F
:040000030000780081
:00000001FF
