:100000000C946E010C9496010C9496010C9496013C
:100010000C9496010C9496010C9496010C94960104
:100020000C9496010C9496010C94FF080C948A0988
:100030000C9496010C9496010C9496010C949601E4
:100040000C9496010C9496010C9496010C949601D4
:100050000C9496010C9496010C9496010C943D031B
:100060000C9496010C9496010C9496010C949601B4
:100070000C9496010C9496010C9496010C949601A4
:100080000C9496010C9496010C9496010C94960194
:100090000C9496010C9496010C9496010C94960184
:1000A0000C9496010C9496010C94960100000000AB
:1000B000240027002A002D00300000000000250049
:1000C00028002B002E003100000000002300260035
:1000D00029002C002F000404040404030405020278
:1000E00002020403020202020606060606060404D1
:1000F00002020204040802011040804010204080E7
:10010000408008020401804020100201108010206D
:1001100040400000000200080E0000030401000B34
:100120000000070605040100080A0B0C0D09080B66
:1001300000020202010009040000010202000005A1
:1001400024001001052401010104240206052406EF
:1001500000010705810310004009040100020A00A4
:10016000000007050202400000070583024000006E
:1001700004030904220353007000610072006B0045
:10018000660075006E002000460069006F002000C8
:1001900076003300200018035300700061007200E5
:1001A0006B00460075006E00200020002000120148
:1001B0000002000000404F1B01F10001010200019C
:1001C00012010002020000404F1B01F10001010278
:1001D000000100C18081C105010902A1010901A13D
:1001E00000850105091901290315002501950375ED
:1001F0000181029501750581030501093009310965
:10020000381581257F750895038106C0C005010951
:1002100006A1018502050719E029E71500250175EA
:1002200001950881029501750881039506750815E9
:100230000025650507190029658100C00904020031
:1002400001030000000921010100012265000705EA
:10025000840340000100000000000000002A2B2859
:10026000000000000000000000000000000000008E
:1002700000000000002C9EB4A0A1A2A434A6A7A553
:10028000AE362D3738271E1F20212223242526B3E2
:1002900033B62EB7B89F8485868788898A8B8C8DE4
:1002A0008E8F909192939495969798999A9B9C9DF6
:1002B0002F3130A3AD350405060708090A0B0C0DD4
:1002C0000E0F101112131415161718191A1B1C1DD6
:1002D000AFB1B0B5000087063B080D0B11241FBE5F
:1002E000CFEFDAE0DEBFCDBF11E0A0E0B1E0ECE39C
:1002F000F8E102C005900D92A234B107D9F711E0E0
:10030000A2E4B1E001C01D92A33CB107E1F712E005
:10031000CCEDD2E004C02297FE010E94180CC63D2D
:10032000D107C9F70E944B070C941C0C0C940000D9
:100330008091420190914301019751F480914401D1
:1003400090914501019721F487E061E00E94D90571
:100350008091420190914301892B31F080914401B9
:1003600090914501892B21F487E060E00E94D90536
:100370000895CF93DF9384E10E944A04909347014C
:100380008093460185E10E944A049093490180933D
:10039000480186E10E944A0490934B0180934A01F0
:1003A00087E10E944A0490934D0180934C01CAE07A
:1003B000D1E088810E940C06892B09F43FC080910E
:1003C000480190914901875B9340C4F180914C01B1
:1003D00090914D01875B93408CF1229681E0C6316C
:1003E000D80739F7C0E0D1E088810E940C06892B3C
:1003F00079F580914601909147018436910544F545
:1004000080914A0190914B01843691050CF522961A
:1004100021E0CA30D20741F78091500190915101FB
:10042000892B39F481E090E0909345018093440159
:1004300019C0109245011092440114C080915001DE
:100440009091510101969093510180935001C5CF35
:1004500080915001909151010196909351018093A8
:100460005001D5CFDF91CF910895CF93DF9384E1F1
:100470000E944A04909347018093460185E10E94BF
:100480004A04909349018093480186E10E944A04FE
:1004900090934B0180934A0187E10E944A04909314
:1004A0004D0180934C01C0E0D1E088810E940C0690
:1004B000892B09F43FC08091460190914701875BE9
:1004C0009340C4F180914A0190914B01875B934026
:1004D0008CF1229681E0CA30D80739F7CAE0D1E022
:1004E00088810E940C06892B79F5809148019091B2
:1004F00049018436910544F580914C0190914D015C
:10050000843691050CF5229621E0C631D20741F7D9
:1005100080914E0190914F01892B39F481E090E058
:10052000909343018093420119C0109243011092AD
:10053000420114C080914E0190914F010196909319
:100540004F0180934E01C5CF80914E0190914F0194
:10055000019690934F0180934E01D5CFDF91CF91BB
:10056000089582E160E070E00E94820483E16FEF11
:1005700070E00E948204089582E16FEF70E00E94B3
:10058000820483E160E070E00E948204089510928A
:100590004F0110924E0110925101109250010E9491
:1005A000BC026AEF70E080E090E00E9491030E943C
:1005B00035026AE070E080E090E00E9491030E94C2
:1005C000B1026AEF70E080E090E00E9491030E9427
:1005D000B9016AE070E080E090E00E9491030E941F
:1005E00098016AE070E080E090E00E949103089535
:1005F000CF93DF9382E161E00E943C0583E161E0FB
:100600000E943C0584E160E00E943C0585E160E0D9
:100610000E943C0586E160E00E943C0587E160E0C5
:100620000E943C0587E061E00E943C05C0E0D1E00B
:10063000888160E00E943C05888161E00E94D905C4
:10064000229681E0CA30D80799F7CAE0D1E08881C4
:1006500060E00E943C05888161E00E94D9052296F5
:1006600081E0C631D80799F78FE991E060E875E23B
:100670000E943C06DF91CF9108951F920F920FB612
:100680000F9211242F933F934F935F936F937F9318
:100690008F939F93AF93BF93209156013091570151
:1006A000409158015091590170915A01DA01C901E4
:1006B0000296A11DB11D672F6A5F6D3730F06D572F
:1006C000DA01C9010396A11DB11D60935A018093FF
:1006D000560190935701A0935801B093590180910E
:1006E000520190915301A0915401B091550101968E
:1006F000A11DB11D8093520190935301A093540109
:10070000B0935501BF91AF919F918F917F916F9160
:100710005F914F913F912F910F900FBE0F901F90BF
:1007200018959B01AC017FB7F8948091520190918C
:100730005301A0915401B091550166B5A89B05C025
:100740006F3F19F00196A11DB11D7FBFBA2FA92FD0
:10075000982F8827860F911DA11DB11D63E0880F7A
:10076000991FAA1FBB1F6A95D1F7BC012DC0FFB707
:10077000F8948091520190915301A0915401B0914D
:100780005501E6B5A89B05C0EF3F19F00196A11DE4
:10079000B11DFFBFBA2FA92F982F88278E0F911D4B
:1007A000A11DB11DE3E0880F991FAA1FBB1FEA9589
:1007B000D1F7861B970B885E9340C8F221503040DA
:1007C0004040504068517C4F21153105410551058D
:1007D00071F60895789484B5826084BD84B5816093
:1007E00084BD85B5826085BD85B5816085BDEEE639
:1007F000F0E0808181608083E1E8F0E01082808118
:1008000082608083808181608083E0E8F0E0808185
:1008100081608083E1EBF0E0808184608083E0EBA5
:10082000F0E0808181608083E1E9F0E08081826096
:100830008083808181608083E0E9F0E08081816055
:100840008083E1ECF0E0808184608083808182603D
:100850008083808181608083E3ECF0E0808181602F
:100860008083E0ECF0E0808182608083E2ECF0E065
:10087000808181608083EAE7F0E08081846080830A
:1008800080818260808380818160808380818068B4
:1008900080830895823108F08251E82FF0E0EE5D08
:1008A000FE4FE49120917B008E2F8695869586954C
:1008B00090E08170907035E0880F991F3A95E1F7CC
:1008C0002F7D282B20937B00E77080911601829565
:1008D000880F880F807C8E2B80937C0080917A001B
:1008E000806480937A0080917A0086FDFCCF20910D
:1008F000780040917900942F80E030E0282B392B4C
:10090000C90108951F93CF93DF93182FEB0161E086
:100910000E943C05209709F4A4C0CF3FD10509F4FB
:10092000A3C0E12FF0E0EE5EFE4F8491873009F422
:100930004DC0883080F4833069F1843030F48130E8
:10094000F9F0823009F08AC020C0843069F1863025
:1009500009F084C033C08A3009F454C08B3030F4BD
:100960008830E1F1893009F079C042C08C3009F457
:1009700060C08C3008F450C08E3009F06FC061C088
:1009800084B5806884BDC7BD73C084B5806284BDF2
:10099000C8BD6EC080918000806880938000D09335
:1009A0008900C093880064C0809180008062809339
:1009B0008000D0938B00C0938A005AC08091B00011
:1009C00080688093B000C093B30052C08091B000A3
:1009D00080628093B000C093B4004AC080919000C0
:1009E000806880939000D0939900C093980040C095
:1009F00080919000806280939000D0939B00C09380
:100A00009A0036C080919000886080939000D093C7
:100A10009D00C0939C002CC08091C0008068809392
:100A2000C0008091C0008F7B8093C000C093CF0036
:100A30001FC08091C00080628093C000C093D0002E
:100A400017C08091C20088608093C2008091C2006C
:100A50008B7F8093C200C093D2000AC0C038D105FA
:100A60001CF4812F60E002C0812F61E00E94D90553
:100A7000DF91CF911F910895CF93DF93482F50E0DE
:100A8000CA018C509F4FFC0134914A525F4FFA01CA
:100A90008491882369F190E0880F991FFC01E45547
:100AA000FF4FA591B491FC01E654FF4FC591D4913D
:100AB000662351F42FB7F8948C91932F9095892346
:100AC0008C93888189230BC0623061F42FB7F8942E
:100AD0008C91932F909589238C938881832B888385
:100AE0002FBF06C09FB7F8948C91832B8C939FBF28
:100AF000DF91CF9108958730C1F1883080F4833041
:100B0000F9F0843030F4813029F1823009F050C09E
:100B100024C08430C9F0863009F04AC022C08A302F
:100B200091F18B3030F4883031F1893009F040C0D8
:100B300026C08C3091F18C3060F18E30C9F533C015
:100B4000809180008F7703C0809180008F7D80939B
:100B50008000089584B58F7702C084B58F7D84BDF1
:100B600008958091B0008F7703C08091B0008F7D91
:100B70008093B0000895809190008F7707C0809196
:100B800090008F7D03C080919000877F80939000BC
:100B900008958091C0008F7703C08091C0008F7D41
:100BA0008093C00008958091C200877F8093C20027
:100BB0000895FF920F931F93F62E482F50E0CA011D
:100BC0008E5E9E4FFC012491CA018C509F4FFC0108
:100BD00014914A525F4FFA0104910023C9F0222375
:100BE00019F0822F0E947B05E02FF0E0EE0FFF1F2F
:100BF000E654FF4FA591B4919FB7F894FF2021F4DC
:100C00008C911095812302C08C91812B8C939FBF76
:100C10001F910F91FF9008950F931F93482F50E05D
:100C2000CA018E5E9E4FFC012491CA018C509F4FD9
:100C3000FC0104914A525F4FFA011491112319F4F7
:100C400020E030E015C0222319F0822F0E947B059E
:100C5000812F90E0880F991F88539F4FFC01A59129
:100C6000B4918C9120E030E0802311F021E030E05D
:100C7000C9011F910F910895089520919B01309112
:100C80009C0180919D0190919E01281B390B2F732F
:100C90003070C901089520919B0130919C01809191
:100CA0009D0190919E012817390719F42FEF3FEF0E
:100CB00009C0E0919D01F0919E01E55AFE4F8081AF
:100CC000282F30E0C901089520919B0130919C01AB
:100CD00080919D0190919E012817390719F42FEFFB
:100CE0003FEF13C0E0919D01F0919E01E55AFE4F48
:100CF000208180919D0190919E0101968F7390704B
:100D000090939E0180939D0130E0C9010895109257
:100D1000A2011092A10188EE93E0A0E0B0E08093E0
:100D2000A3019093A401A093A501B093A60185E22D
:100D300091E09093A00180939F0108950F931F93DA
:100D4000DF93CF930F92CDB7DEB78C01698380918B
:100D50001E01882369F083E0BE016F5F7F4F41E091
:100D600050E00E945A081816190614F49C0107C096
:100D700081E090E0F8019383828320E030E0C901B4
:100D80000F90CF91DF911F910F91089583E00E9402
:100D90003108089582E00E94BC07482F20919B01F2
:100DA00030919C012F5F3F4F2F73307080919D01D8
:100DB00090919E012817390759F0E0919B01F0911D
:100DC0009C01E55AFE4F408330939C0120939B0188
:100DD0000895FC0180818E5F808380E86EE271E07F
:100DE00042E450E00E94D5070895FC018181908182
:100DF000913A59F4813209F04CC080E067E171E02A
:100E000047E050E00E94D50742C0913209F041C04E
:100E1000803239F487E191E067E070E00E941908C0
:100E200036C0823209F035C0828180931E018091E4
:100E3000170190911801A0911901B0911A01805BDE
:100E40009440A040B04019F580911E0180FD12C071
:100E500087E797E790930108809300082BE088E1EB
:100E600090E00FB6F894A895809360000FBE209391
:100E700060000DC088E10FB6F89480936000109276
:100E800060000FBEA895109201081092000881E042
:100E9000089580E00895CF93DF930E94EA0385EBE5
:100EA00091E00E943C080E94F802C0E0D0E00E945D
:100EB000C7022097E1F30E940000F9CFCF92DF92A2
:100EC000EF92FF920F931F93CF93DF937C016B01FF
:100ED0008A01C0E0D0E00FC0D6016D916D01D7014D
:100EE000ED91FC910190F081E02DC7010995C80FAB
:100EF000D91F015010400115110571F7CE01DF9186
:100F0000CF911F910F91FF90EF90DF90CF900895B8
:100F1000282F8091AF018823C1F057FF1AC015C058
:100F2000289A9093AE018091F1008193E217F30724
:100F3000B9F74115510539F08091F200882319F471
:100F40008BE68093E800AFBF02C04FEF5FEFCA01AE
:100F50000895AFB7F89427702093E9008091F200CC
:100F6000282F30E0241735070CF4A901FB019B0161
:100F7000240F311D94E6DACFDF93CF930F92CDB7D4
:100F8000DEB7BE016F5F7F4F41E050E00E948807EF
:100F9000019719F02FEF3FEF03C08981282F30E030
:100FA000C9010F90CF91DF910895FF920F931F9386
:100FB000F82E142F052F4091B2015091B301212F2B
:100FC000302FC901DC01FB016EEF29C0F7FE02C022
:100FD000949101C090812091B0013091B10124170A
:100FE0003507ACF48091E8008570E1F38091E8006A
:100FF00082FF03C02FEF3FEF17C09093F100C901AC
:1010000001968F739070892B11F46093E8002F5F25
:101010003F4F3093B1012093B00111973196109753
:10102000A9F6812F902F9C01C9011F910F91FF906C
:1010300008959C018091E80082FFFCCFF901260F02
:10104000311D03C08091F1008193E217F307D1F7BE
:10105000289A84E68093AE018BEF8093E800CB0161
:1010600008958093E9008091F200882319F08AE3C3
:101070008093E800089508951092AF0181E0809375
:10108000D70080EA8093D80082E089BD09B400FED1
:10109000FDCF61E070E080E090E00E94910380E984
:1010A0008093D8008CE08093E2001092E000559A83
:1010B000209A08955F926F927F928F929F92AF9243
:1010C000BF92CF92DF92EF92FF920F931F93CF9335
:1010D000DF93E82E842E752E8091AF01882371F165
:1010E0008B01242F352FC901EC017AEFF72E67E031
:1010F000962E9E2050E4552E8E2D90E040E2A42E98
:10110000B12CA822B9223AE3632E20E4C22ED12CBE
:10111000C822D92258C09FB7F8949092E9008091D4
:10112000E80085FD02C020E004C08091F200252D7A
:10113000281B9FBF222361F4FA9419F42FEF3FEF8D
:101140004DC061E070E080E090E00E9491033BC000
:10115000822F90E0C817D9070CF42C2FC21BD1099D
:101160004FB7F8949092E900A114B10421F406C09D
:101170001092F10021502223D9F719C0E7FC03C0D7
:10118000F801922F10C0C801322F06C0FC01019651
:10119000E491E093F10031503323C1F706C081910F
:1011A0008093F10091509923D1F7020F111D809186
:1011B000E80085FF05C0209729F4C114D10411F07F
:1011C0006092E8004FBF209709F0A5CF5D9A84E6B2
:1011D0008093AD01282D372DC9019C01C901DF91F4
:1011E000CF911F910F91FF90EF90DF90CF90BF9024
:1011F000AF909F908F907F906F905F9008951F9217
:101200000F920FB60F9211241F932F933F934F937A
:101210005F936F937F938F939F93AF93BF93EF935E
:10122000FF938091E1001092E100982F83FF0FC09F
:101230001092E90081E08093EB001092EC0082E3D1
:101240008093ED001092AF0188E08093F00092FF50
:1012500036C083E08093E9008091F200882349F052
:101260008AE38093E80005C08FE991E00E94CA06F6
:1012700001C012E09FB7F8941093E9008091F2004A
:101280009FBF882389F78091AD01882351F0809119
:10129000AD0181508093AD018091AD01882309F4A7
:1012A0005D988091AE01882351F08091AE0181500C
:1012B0008093AE018091AE01882309F42898FF91B4
:1012C000EF91BF91AF919F918F917F916F915F91BE
:1012D0004F913F912F911F910F900FBE0F901F9034
:1012E00018950F931F93DF93CF930F92CDB7DEB76F
:1012F00019828E010F5F1F4FC8010E94E906C801C5
:101300000E940A0C898190E00F90CF91DF911F918C
:101310000F9108951F920F920FB60F921124EF9222
:10132000FF921F932F933F934F935F936F937F93FE
:101330008F939F93AF93BF93EF93FF93DF93CF93DD
:10134000CDB7DEB76197DEBFCDBF1092E9008091C7
:10135000E80083FF0FC1FE0131969E01275F3F4FDA
:1013600003C08091F1008193E217F307D1F7289A27
:1013700084E68093AE0182EF8093E800998197FF25
:1013800005C08091E80080FFFCCF03C08EEF809302
:10139000E800292F30E0C90180769070892B09F090
:1013A000C2C08A81882329F41092F1001092F100C2
:1013B000D6C0813009F4D3C0833009F4D0C0853061
:1013C00049F48091E80080FFFCCF8B818068809396
:1013D000E300C5C0863009F07CC01C81EF80F88432
:1013E0001230C1F51092E9001092B1011092B001D3
:1013F0001092B3011092B2010E94710999E0FE01AE
:101400003996DF01292F1D922A95E9F799871A87C6
:1014100091E09E8790E8988B9AEF998B2091B0018C
:101420003091B101275F3F4F3C872B878D8710920A
:10143000E9001092B1011092B001F092B301E09274
:10144000B20180E0BF0149E050E00E94D5070E9450
:10145000710985C01092E9001092B1011092B0019B
:10146000F092B301E092B201123241F482E290E0D4
:101470000E94020C892B09F476C071C0113079F4F6
:1014800088E0E816F10419F481E08093B4018091BA
:10149000B401882309F06BC0EEEAF1E013C0133009
:1014A00009F061C08B81882319F4E0E7F1E00AC0FC
:1014B000823019F4E4E7F1E005C0813009F053C04F
:1014C000E6E9F1E0449180E8BF0150E00E94D507D1
:1014D00046C0873009F447C0883021F481E080930A
:1014E000F1003DC08930D9F523703070232BD9F538
:1014F000E3EDF1E091E031E026E39093E9003093F1
:10150000EB0084918093EC002093ED009F5F319677
:10151000953099F78EE78093EA001092EA008B816C
:101520008093AF011CC08F8198851092E9001092C2
:10153000B1011092B0019093B3018093B2018D81FB
:10154000882329F4CE0101960E94F50606C0823058
:1015500051F4CE0101960E94D30A882321F08EEF28
:101560008093E80007C081E28093EB0003C0E0ECC9
:10157000F1E0A8CF6196DEBFCDBFCF91DF91FF91A3
:10158000EF91BF91AF919F918F917F916F915F91FB
:101590004F913F912F911F91FF90EF900F900FBEB1
:1015A0000F901F901895FC0191818081813A31F450
:1015B000913089F080E0933089F40DC0813269F474
:1015C0009B3021F4828180931F0105C09A3029F459
:1015D00082818093200181E0089580E00895EF9258
:1015E000FF920F931F938C01E62EDC01ED91FC918D
:1015F0000480F581E02D0995F82ED801ED91FC913C
:101600000680F781E02DC8016E2D09958F2D90E0A1
:101610001F910F91FF90EF9008951092B6011092D4
:10162000BA011092B90187E391E09093B8018093D9
:10163000B7010895EF92FF920F931F93DF93CF931B
:101640000F92CDB7DEB789838B017A0184E0BE01AA
:101650006F5F7F4F41E050E00E945A0884E4B80178
:10166000A7010E945A080F90CF91DF911F910F910F
:10167000FF90EF90089582E048E050E00E941A0B3E
:101680000895FC0116821782108611861286138631
:1016900014823496BF010E943B0B0895DC01683828
:1016A00010F0685829C0E62FF0E067FF13C0E0583B
:1016B000F04081E090E002C0880F991FEA95E2F7C0
:1016C000809514962C911497282314962C93149794
:1016D00060E012C0EB5AFD4F6491662319F420E0DC
:1016E00030E01DC067FF08C014968C9114978D7F61
:1016F00014968C9314976F77FD0190E0662321F088
:101700008681861709F416829F5F31969630B1F76D
:10171000CD011496BD010E943B0B21E030E0C901D0
:101720000895CF93DF93DC01683810F0685825C026
:10173000E62FF0E067FF12C0E058F04081E090E053
:1017400002C0880F991FEA95E2F714962C9114971E
:10175000282B14962C93149760E00FC0EB5AFD4F82
:1017600064916623D9F167FF08C014968C91149791
:10177000826014968C9314976F7716968C911697B7
:101780008617A9F117968C911797861781F11896ED
:101790008C911897861759F119968C91199786177D
:1017A00031F11A968C911A97861709F11B968C9134
:1017B0001B978617E1F0ED01E0E0F0E09E2F8E81AF
:1017C000882321F4EA0FFB1F668306C09F5F3196D2
:1017D0002196E630F10591F7963049F481E090E0EA
:1017E00013969C938E93129720E030E007C0CD01B2
:1017F0001496BD010E943B0B21E030E0C901DF914E
:10180000CF91089580E867ED71E045E650E00E94D1
:10181000D5070895FC0180818F5F808380E86CE3A9
:1018200072E049E150E00E94D5070895EE0FFF1FD6
:101830000590F491E02D0994F894FFCF0100020087
:1018400005000600090000000300040008000A006B
:101850000B000100E1000000000000010100000099
:10186000009E065E073D0664064B06C606CA0600D5
:10187000000000EF0A5E07910B4E0B410B00FFFFCB
:10188000FFFFFFFFFFFFFFFFFFFFFFFFFFFFFFFF68
:10189000FFFFFFFFFFFFFFFFFFFFFFFFFFFFFFFF58
:1018A000FFFFFFFFFFFFFFFFFFFFFFFFFFFFFFFF48
:1018B000FFFFFFFFFFFFFFFFFFFFFFFFFFFFFFFF38
:1070000055C000006EC000006CC000006AC00000E7
:1070100068C0000066C0000064C0000062C00000DC
:1070200060C000005EC00000F2C400005AC0000052
:1070300058C0000056C0000054C0000052C00000FC
:1070400050C0000078C000004CC000004AC00000E2
:1070500048C0000046C0000044C0000042C000001C
:1070600040C000003EC000003CC000003AC000002C
:1070700038C0000036C0000034C0000032C000003C
:1070800030C000002EC000002CC000002AC000004C
:1070900028C0000026C0000024C0000022C000005C
:1070A00020C000001EC000001CC0000011241FBE34
:1070B000CFEFDAE0DEBFCDBF11E0A0E0B1E0EEE25D
:1070C000FFE702C005900D92A63BB107D9F711E08A
:1070D000A6EBB1E001C01D92AC3CB107E1F78FD344
:1070E00024C78ECFF89410926F00109281001092F6
:1070F00085001092840081E085BF15BE47985D9899
:1071000028980C94000008952091C0013091C1018D
:107110002F5F3F4F3093C1012093C001932F37FF62
:1071200003C08EEF831B982F990F921710F4479886
:107130000895479A08951F920F920FB60F92112447
:107140002F938F939F93EF93FF931092850010924C
:1071500084008091B6019091B701009741F00197AA
:107160009093B7018093B601892B09F45D988091C3
:10717000B8019091B901009741F001979093B9013E
:107180008093B801892B09F42898E0E0F0E085911C
:1071900094918F5F9F4F49F08091BA019091BB010C
:1071A00001969093BB018093BA01FF91EF919F915B
:1071B0008F912F910F900FBE0F901F90189584E024
:1071C0008093E9000DC08091E8008B778093E80000
:1071D00003C08EB3882351F08091E80082FFF9CF7D
:1071E0008091E80085FFEFCF8091F1000895982FFE
:1071F00083E08093E9008091E80085FD0DC08091D7
:10720000E8008E778093E80003C08EB3882369F08E
:107210008091E80080FFF9CF9093F1005D9A84E6B9
:1072200090E09093B7018093B60108954F925F92DA
:107230006F927F928F929F92AF92BF92CF92DF9286
:10724000EF92FF920F931F93CF93DF9384E080938D
:10725000E9008091E80082FF57C2289A84E690E016
:107260009093B9018093B801AADF182F853481F477
:107270008CEA9DE09093BB018093BA0107B600FCB5
:10728000FDCFF999FECF81E180935700E89503C0C7
:10729000843519F494DF8DE00DC28C34E1F3803530
:1072A000D1F3843721F484E4A2DF80E003C2813685
:1072B00011F489E5FFC18134B1F481DF182F7FDF3C
:1072C00090E0880F991FAA2797FDA095BA2F312F1C
:1072D000330F20E0442737FD4095542F822B932B0A
:1072E000A42BB52BB8C1803711F483E5E3C18335F6
:1072F00049F4C0E0D1E089917ADF21E0C730D207BC
:10730000D1F7D9C1863521F481E371DF80E3D2C1A1
:10731000833731F487E86BDF85E969DF8EE1CAC125
:107320008536B9F4E0E0F0E093E085E09093570013
:10733000E89507B600FCFDCF80935700E89507B6A7
:1073400000FCFDCFE058FF4FA0E7E030FA0771F7EF
:10735000A2CF823739F4E1E0F0E089E08093570072
:107360008491A8C1863439F4E0E0F0E089E08093AC
:10737000570084919FC18E3439F4E3E0F0E089E056
:1073800080935700849196C1813539F4E2E0F0E0B2
:1073900089E08093570084918DC1823631F489E56C
:1073A00026DF80E024DF80E885C1823419F087364B
:1073B00009F0E5C01092BB011092BA0100DF082F5E
:1073C000FEDEF82EFCDE682E8554823008F071C196
:1073D000902F80E0CF2DD0E0C82BD92B10926F00DA
:1073E000173609F04BC081E180935700E895DD2402
:1073F000CC24C3943FC0E090BC01F090BD0100914B
:10740000BE011091BF01B6E46B16D9F4ED2DF0E08A
:10741000EE29FF29E4918E2FEADEDD2081F082E063
:1074200090E0A0E0B0E0E80EF91E0A1F1B1FE092FA
:10743000BC01F092BD010093BE011093BF01DC249A
:1074400018C0D801C701B695A7959795879557D5C8
:10745000CEDE82E090E0A0E0B0E0E80EF91E0A1F68
:107460001B1FE092BC01F092BD010093BE0110937E
:10747000BF012197209709F0BECF7DC08090BC014D
:107480009090BD01A090BE01B090BF0196E4691636
:1074900009F05DC083E0F40180935700E89507B6DA
:1074A00000FCFDCF54C0F6E46F1661F5772031F192
:1074B000E090BC01F090BD010091BE011091BF01B0
:1074C0007EDED82ECC24852D90E08C299D29F701D5
:1074D0000C0140925700E895112482E090E0A0E072
:1074E000B0E0E80EF91E0A1F1B1FE092BC01F092EB
:1074F000BD010093BE011093BF0102C060DE582E93
:10750000742423C0E090BC01F090BD010091BE0145
:107510001091BF0116950795F794E79450DE682FF8
:10752000C701F5D48091BC019091BD01A091BE012D
:10753000B091BF010296A11DB11D8093BC01909333
:10754000BD01A093BE01B093BF01219704C0552493
:10755000772444244394209709F0A5CF96E4691634
:1075600041F485E0F40180935700E89507B600FCEC
:10757000FDCF8DE03CDE82E080936F009CC08334C1
:1075800071F40091BC011091BD0119DE90E021E081
:10759000F8010C0120935700E89511247CCE833626
:1075A00019F5E090BC01F090BD010091BE01109171
:1075B000BF0105DEF701E16090E021E00C012093BE
:1075C0005700E895112482E090E0A0E0B0E0E80EDA
:1075D000F91E0A1F1B1FE092BC01F092BD0100932F
:1075E000BE011093BF0157CE8D3661F4E091BC010E
:1075F000F091BD0185E080935700E89507B600FC47
:10760000FDCF49CE823551F4E091BC01F091BD012E
:1076100005911491812FEBDD802F4CC0843421F52E
:10762000E090BC01F090BD010091BE011091BF013E
:1076300016950795F794E794C2DD682FC70167D4C4
:107640008091BC019091BD01A091BE01B091BF019C
:107650000296A11DB11D8093BC019093BD01A09322
:10766000BE01B093BF0117CE843609F5E090BC018E
:10767000F090BD010091BE011091BF01D801C7017A
:10768000B695A795979587953AD4B1DD82E090E0BD
:10769000A0E0B0E0E80EF91E0A1F1B1FE092BC013B
:1076A000F092BD010093BE011093BF0104C08B3165
:1076B00011F08FE39CDD83E08093E9009091E80076
:1076C0008091E8008E778093E80095FF04C010C099
:1076D0008EB38823C9F08091E80080FFF9CF8091B4
:1076E000E8008E778093E80003C08EB3882361F0B2
:1076F0008091E80080FFF9CF84E08093E9008091D9
:10770000E8008B778093E800DF91CF911F910F9174
:10771000FF90EF90DF90CF90BF90AF909F908F90B1
:107720007F906F905F904F9008959091C401892F42
:107730008F77813249F58091C5018032A1F0813285
:1077400019F5913A09F58091E800877F8093E80068
:107750008DE091E067E070E009D28091E8008B77DE
:107760008093E8000895913279F48091E800877F52
:107770008093E8008DE091E067E070E05BD280915B
:10778000E8008E778093E800089582E061EC42E0A3
:10779000B5D083E061E842E1B1D084E060E842E145
:1077A000ADC084B7877F84BF88E10FB6F89480931B
:1077B0006000109260000FBE20E880E090E00FB6FD
:1077C000F89420936100809361000FBE81E085BF33
:1077D00092E095BF3F9A209A559AE1E6F0E0208327
:1077E000108247985D982898109289008AEF8093BC
:1077F000880090936F0083E080938100F0C04091F7
:10780000000850910108109201081092000894B7E6
:1078100014BE88E10FB6F894809360001092600067
:107820000FBE292F30E0F901E270F07091FD18C011
:1078300090FF05C0859194918F5F9F4F81F423FF46
:107840000FC08091090190910A014817590741F032
:10785000E0E0F0E0859194918F5F9F4F09F042DC6A
:10786000A0DF78941092BB011092BA010CC0DEDC4C
:1078700034D38091BA019091BB01815A9F4010F09E
:107880001092140141DC80911401882381F78091CA
:10789000E00081608093E00025DC80E090E00895C6
:1078A000FA01923049F0933061F09130F9F485E1BA
:1078B00091E022E130E01EC087E291E02EE330E06B
:1078C00019C0882329F485E691E024E030E012C055
:1078D000813029F489E691E02EE130E00BC082305E
:1078E00029F489E891E02AE230E004C080E090E0E9
:1078F00020E030E091838083C90108958093E900FE
:107900008091EB0081608093EB001092ED0060931A
:10791000EC004093ED008091EE00881F8827881FBF
:1079200008958091C40188238CF403C08EB388230A
:10793000B1F08091E80082FFF9CF8091E8008B7769
:107940008093E80008958EB3882349F08091E80081
:1079500080FFF9CF8091E8008E778093E80008954A
:10796000EF92FF920F931F9345D04CD008ED10E09B
:10797000F80180818F778083808180688083808117
:107980008F7D808319BC1EBA1092C20180EEE82E52
:10799000F12CF70180818B7F8083F80180818160E9
:1079A000808380E060E042E0A9DFE1EEF0E08081EA
:1079B0008E7F8083E2EEF0E0808181608083808131
:1079C00088608083F70180818E7F8083F8018081C9
:1079D000806180831F910F91FF90EF900895E7EDF4
:1079E000F0E08081816080838AE482BF81E08093BF
:1079F000C301B6CFE8EDF0E080818E7F80831092E6
:107A0000E20008951092DA001092E10008951F92AA
:107A10000F920FB60F9211242F933F934F935F93C2
:107A20006F937F938F939F93AF93BF93EF93FF9346
:107A30008091DA0080FF1AC08091D80080FF16C0C4
:107A40008091DA008E7F8093DA008091D90080FFE8
:107A50000AC019BC82E089BD09B400FEFDCF81E0F7
:107A60008EBB3AD203C019BC1EBA36D28091E10057
:107A700080FF17C08091E20080FF13C08091E20078
:107A80008E7F8093E2008091E20080618093E2002B
:107A90008091D80080628093D80019BC85E08EBBAD
:107AA0001BD28091E10084FF2BC08091E20084FF13
:107AB00027C019BC82E089BD09B400FEFDCF8091CA
:107AC000D8008F7D8093D8008091E1008F7E8093D5
:107AD000E1008091E2008F7E8093E2008091E200DD
:107AE00081608093E2008091C201882331F480910B
:107AF000E30087FD02C081E001C084E08EBBECD1D1
:107B00008091E10083FF21C08091E20083FF1DC0CE
:107B10008091E100877F8093E10082E08EBB10922C
:107B2000C2018091E1008E7F8093E1008091E200AC
:107B30008E7F8093E2008091E20080618093E2007A
:107B400080E060E042E0DADEC7D1FF91EF91BF91C3
:107B5000AF919F918F917F916F915F914F913F91E5
:107B60002F910F900FBE0F901F9018959C01409180
:107B7000CA015091CB014617570718F4F90190E05C
:107B800044C06115710511F0AB01F8CF8091E80098
:107B90008E778093E80040E050E0F0CF8EB38823EA
:107BA00009F444C0853009F443C08091E80083FFA4
:107BB00002C081E008958091E80082FD31C080918B
:107BC000E80080FF22C08091F3009091F200782FAE
:107BD00060E0292F30E0262B372B07C0819180935E
:107BE000F100415050402F5F3F4F4115510519F0B2
:107BF0002830310598F390E02830310509F491E000
:107C00008091E8008E778093E8004115510531F6A8
:107C1000992321F605C08EB3882341F0853041F0C9
:107C20008091E80082FFF7CF80E0089582E0089518
:107C300083E008959C016115710529F48091E800A5
:107C40008B778093E800F90126C08EB3882391F1E9
:107C5000853091F18091E80083FF02C081E00895B2
:107C60008091E80082FFF1CF06C08091F1008193FE
:107C70006150704059F02091F3008091F200322F52
:107C800020E090E0822B932B892B79F78091E800FC
:107C90008B778093E80061157105B9F605C08EB346
:107CA000882341F0853041F08091E80080FFF7CFD4
:107CB00080E0089582E0089583E008950F931F9374
:107CC000DF93CF9300D0CDB7DEB7E4ECF1E0809145
:107CD000F100819381E0EC3CF807C9F726DD809143
:107CE000E80083FFE4C08091C4019091C501953004
:107CF00009F46DC0963040F4913081F1913070F00C
:107D0000933009F0D4C02AC0983009F4A3C0993048
:107D100009F4B2C0963009F0CAC07CC0803809F4BA
:107D2000C6C0823809F0C3C08091C80187708093B3
:107D3000E9008091EB001092E9002091E800277F94
:107D40002093E80090E025E0969587952A95E1F745
:107D500081708093F1001092F10087C0882319F0A0
:107D6000823009F0A4C08F71823009F0A0C08091E8
:107D7000C601882331F52091C801277009F497C006
:107D80002093E9008091EB0080FF1BC0933021F429
:107D90008091EB00806213C08091EB008061809342
:107DA000EB0081E090E002C0880F991F2A95E2F76E
:107DB0008093EA001092EA008091EB008860809343
:107DC000EB001092E9008091E800877F51C0882382
:107DD00009F06DC01091C6011F770FB7F89480911C
:107DE000E800877F8093E8009CDD8091E80080FFB9
:107DF000FCCF8091E3008078812B8093E300806842
:107E00008093E300112311F482E001C083E08EBB74
:107E10000FBF4DC08058823008F049C08091C60124
:107E20009091C7016091C801AE014F5F5F4F38DD8F
:107E3000BC01009709F43BC08091E800877F8093E4
:107E4000E80089819A8192DE8091E8008B778093A7
:107E5000E8002DC0803859F58091E800877F809335
:107E6000E8008091C2018093F1008091E8008E7754
:107E70008093E80056DD1BC08823C9F49091C601A9
:107E80009230A8F48091E800877F8093E800909377
:107E9000C20147DD8091C201882331F48091E30063
:107EA00087FD02C081E001C084E08EBB6EDC809162
:107EB000E80083FF0AC08091EB0080628093EB00B2
:107EC0008091E800877F8093E8000F900F90CF911A
:107ED000DF911F910F91089508951F938EB388230A
:107EE00061F01091E9001092E9008091E80083FFB1
:107EF00001C0E4DE17701093E9001F910895F9990D
:107F0000FECF92BD81BDF89A992780B50895262F9E
:107F1000F999FECF1FBA92BD81BD20BD0FB6F8946E
:107F2000FA9AF99A0FBE01960895F894FFCF43414B
:107F3000544552494E410077770008000000000088
:107F400000080112011001020000084F1B00F1019E
:107F5000000201000109023E000201008032090412
:107F600000000102020100052400100104240204A3
:107F70000524060001070582030800FF090401002B
:107F8000020A000000070504021000010705830231
:107F9000100001040309041E03460069006F00205D
:107FA0000076003300200020002000200020002068
:107FB000002000200000002A0353007000610072BE
:107FC000006B00460075006E00200045006C0065E7
:107FD000006300740072006F006E0069006300733C
:107FE00000000000FFFFFFFFFFFFFFFFFFFFFFFF9D
:107FF000FFFFFFFFFFFFFFFFFFFFFFFFFFFFFFFF91
:00000001FF
